{
    "_format": "hh-sol-artifact-1",
    "contractName": "FractionAsset",
    "sourceName": "contracts/FractionAsset.sol",
    "abi": [
        {
            "inputs": [
                {
                    "internalType": "string",
                    "name": "_name",
                    "type": "string"
                },
                {
                    "internalType": "uint256",
                    "name": "_shares",
                    "type": "uint256"
                },
                {
                    "internalType": "uint256",
                    "name": "_assetPrice",
                    "type": "uint256"
                }
            ],
            "stateMutability": "nonpayable",
            "type": "constructor"
        },
        {
            "anonymous": false,
            "inputs": [
                {
                    "indexed": false,
                    "internalType": "address",
                    "name": "user",
                    "type": "address"
                },
                {
                    "indexed": false,
                    "internalType": "uint256",
                    "name": "when",
                    "type": "uint256"
                }
            ],
            "name": "BuyFractions",
            "type": "event"
        },
        {
            "inputs": [
                {
                    "internalType": "address",
                    "name": "_user",
                    "type": "address"
                }
            ],
            "name": "balanceOf",
            "outputs": [
                {
                    "internalType": "uint256",
                    "name": "",
                    "type": "uint256"
                }
            ],
            "stateMutability": "view",
            "type": "function"
        },
        {
            "inputs": [
                {
                    "internalType": "uint256",
                    "name": "_shares",
                    "type": "uint256"
                }
            ],
            "name": "buyFractions",
            "outputs": [],
            "stateMutability": "payable",
            "type": "function"
        },
        {
            "inputs": [],
            "name": "name",
            "outputs": [
                {
                    "internalType": "string",
                    "name": "",
                    "type": "string"
                }
            ],
            "stateMutability": "view",
            "type": "function"
        },
        {
            "inputs": [],
            "name": "owner",
            "outputs": [
                {
                    "internalType": "address payable",
                    "name": "",
                    "type": "address"
                }
            ],
            "stateMutability": "view",
            "type": "function"
        },
        {
            "inputs": [
                {
                    "internalType": "address",
                    "name": "",
                    "type": "address"
                }
            ],
            "name": "shareOwners",
            "outputs": [
                {
                    "internalType": "uint256",
                    "name": "",
                    "type": "uint256"
                }
            ],
            "stateMutability": "view",
            "type": "function"
        },
        {
            "inputs": [],
            "name": "sharePrice",
            "outputs": [
                {
                    "internalType": "uint256",
                    "name": "",
                    "type": "uint256"
                }
            ],
            "stateMutability": "view",
            "type": "function"
        },
        {
            "inputs": [],
            "name": "shares",
            "outputs": [
                {
                    "internalType": "uint256",
                    "name": "",
                    "type": "uint256"
                }
            ],
            "stateMutability": "view",
            "type": "function"
        },
        {
            "inputs": [],
            "name": "totalOwnedShares",
            "outputs": [
                {
                    "internalType": "uint256",
                    "name": "",
                    "type": "uint256"
                }
            ],
            "stateMutability": "view",
            "type": "function"
        }
    ],
    "bytecode": "0x60806040523480156200001157600080fd5b50604051620011803803806200118083398181016040528101906200003791906200040f565b600182116200007d576040517f08c379a00000000000000000000000000000000000000000000000000000000081526004016200007490620004eb565b60405180910390fd5b6000835111620000c4576040517f08c379a0000000000000000000000000000000000000000000000000000000008152600401620000bb906200055d565b60405180910390fd5b600081116200010a576040517f08c379a00000000000000000000000000000000000000000000000000000000081526004016200010190620005cf565b60405180910390fd5b82600190805190602001906200012292919062000187565b5081600281905550818162000138919062000620565b600581905550336000806101000a81548173ffffffffffffffffffffffffffffffffffffffff021916908373ffffffffffffffffffffffffffffffffffffffff160217905550505050620006bd565b828054620001959062000687565b90600052602060002090601f016020900481019282620001b9576000855562000205565b82601f10620001d457805160ff191683800117855562000205565b8280016001018555821562000205579182015b8281111562000204578251825591602001919060010190620001e7565b5b50905062000214919062000218565b5090565b5b808211156200023357600081600090555060010162000219565b5090565b6000604051905090565b600080fd5b600080fd5b600080fd5b600080fd5b6000601f19601f8301169050919050565b7f4e487b7100000000000000000000000000000000000000000000000000000000600052604160045260246000fd5b620002a08262000255565b810181811067ffffffffffffffff82111715620002c257620002c162000266565b5b80604052505050565b6000620002d762000237565b9050620002e5828262000295565b919050565b600067ffffffffffffffff82111562000308576200030762000266565b5b620003138262000255565b9050602081019050919050565b60005b838110156200034057808201518184015260208101905062000323565b8381111562000350576000848401525b50505050565b60006200036d6200036784620002ea565b620002cb565b9050828152602081018484840111156200038c576200038b62000250565b5b6200039984828562000320565b509392505050565b600082601f830112620003b957620003b86200024b565b5b8151620003cb84826020860162000356565b91505092915050565b6000819050919050565b620003e981620003d4565b8114620003f557600080fd5b50565b6000815190506200040981620003de565b92915050565b6000806000606084860312156200042b576200042a62000241565b5b600084015167ffffffffffffffff8111156200044c576200044b62000246565b5b6200045a86828701620003a1565b93505060206200046d86828701620003f8565b92505060406200048086828701620003f8565b9150509250925092565b600082825260208201905092915050565b7f4e6f7420656e6f756768206672616369746f6e732e0000000000000000000000600082015250565b6000620004d36015836200048a565b9150620004e0826200049b565b602082019050919050565b600060208201905081810360008301526200050681620004c4565b9050919050565b7f4173736574206e616d652073686f756c64206265207365742e00000000000000600082015250565b6000620005456019836200048a565b915062000552826200050d565b602082019050919050565b60006020820190508181036000830152620005788162000536565b9050919050565b7f50726963652073686f756c64206265207365742e000000000000000000000000600082015250565b6000620005b76014836200048a565b9150620005c4826200057f565b602082019050919050565b60006020820190508181036000830152620005ea81620005a8565b9050919050565b7f4e487b7100000000000000000000000000000000000000000000000000000000600052601260045260246000fd5b60006200062d82620003d4565b91506200063a83620003d4565b9250826200064d576200064c620005f1565b5b828204905092915050565b7f4e487b7100000000000000000000000000000000000000000000000000000000600052602260045260246000fd5b60006002820490506001821680620006a057607f821691505b60208210811415620006b757620006b662000658565b5b50919050565b610ab380620006cd6000396000f3fe60806040526004361061007b5760003560e01c8063872697291161004e57806387269729146101505780638da5cb5b1461017b5780639fa1d5a1146101a6578063a7acb52b146101d15761007b565b806303314efa1461008057806306fdde03146100ab578063570ec80f146100d657806370a0823114610113575b600080fd5b34801561008c57600080fd5b506100956101ed565b6040516100a29190610580565b60405180910390f35b3480156100b757600080fd5b506100c06101f3565b6040516100cd9190610634565b60405180910390f35b3480156100e257600080fd5b506100fd60048036038101906100f891906106b9565b610281565b60405161010a9190610580565b60405180910390f35b34801561011f57600080fd5b5061013a600480360381019061013591906106b9565b610299565b6040516101479190610580565b60405180910390f35b34801561015c57600080fd5b506101656102e2565b6040516101729190610580565b60405180910390f35b34801561018757600080fd5b506101906102e8565b60405161019d9190610707565b60405180910390f35b3480156101b257600080fd5b506101bb61030c565b6040516101c89190610580565b60405180910390f35b6101eb60048036038101906101e6919061074e565b610312565b005b60025481565b60018054610200906107aa565b80601f016020809104026020016040519081016040528092919081815260200182805461022c906107aa565b80156102795780601f1061024e57610100808354040283529160200191610279565b820191906000526020600020905b81548152906001019060200180831161025c57829003601f168201915b505050505081565b60046020528060005260406000206000915090505481565b6000600460008373ffffffffffffffffffffffffffffffffffffffff1673ffffffffffffffffffffffffffffffffffffffff168152602001908152602001600020549050919050565b60055481565b60008054906101000a900473ffffffffffffffffffffffffffffffffffffffff1681565b60035481565b60025461032a6003548361053b90919063ffffffff16565b111561036b576040517f08c379a000000000000000000000000000000000000000000000000000000000815260040161036290610828565b60405180910390fd5b6103806005548261055190919063ffffffff16565b3410156103c2576040517f08c379a00000000000000000000000000000000000000000000000000000000081526004016103b990610894565b60405180910390fd5b60008060009054906101000a900473ffffffffffffffffffffffffffffffffffffffff1673ffffffffffffffffffffffffffffffffffffffff1634604051610409906108e5565b60006040518083038185875af1925050503d8060008114610446576040519150601f19603f3d011682016040523d82523d6000602084013e61044b565b606091505b505090508061048f576040517f08c379a000000000000000000000000000000000000000000000000000000000815260040161048690610946565b60405180910390fd5b81600360008282546104a19190610995565b9250508190555081600460003373ffffffffffffffffffffffffffffffffffffffff1673ffffffffffffffffffffffffffffffffffffffff16815260200190815260200160002060008282546104f79190610995565b925050819055507ff784c92911ce2a81c1346b2010b48ca71be7f4478ad7ba7450316c16e085c195338360405161052f9291906109fa565b60405180910390a15050565b600081836105499190610995565b905092915050565b6000818361055f9190610a23565b905092915050565b6000819050919050565b61057a81610567565b82525050565b60006020820190506105956000830184610571565b92915050565b600081519050919050565b600082825260208201905092915050565b60005b838110156105d55780820151818401526020810190506105ba565b838111156105e4576000848401525b50505050565b6000601f19601f8301169050919050565b60006106068261059b565b61061081856105a6565b93506106208185602086016105b7565b610629816105ea565b840191505092915050565b6000602082019050818103600083015261064e81846105fb565b905092915050565b600080fd5b600073ffffffffffffffffffffffffffffffffffffffff82169050919050565b60006106868261065b565b9050919050565b6106968161067b565b81146106a157600080fd5b50565b6000813590506106b38161068d565b92915050565b6000602082840312156106cf576106ce610656565b5b60006106dd848285016106a4565b91505092915050565b60006106f18261065b565b9050919050565b610701816106e6565b82525050565b600060208201905061071c60008301846106f8565b92915050565b61072b81610567565b811461073657600080fd5b50565b60008135905061074881610722565b92915050565b60006020828403121561076457610763610656565b5b600061077284828501610739565b91505092915050565b7f4e487b7100000000000000000000000000000000000000000000000000000000600052602260045260246000fd5b600060028204905060018216806107c257607f821691505b602082108114156107d6576107d561077b565b5b50919050565b7f4e6f7420656e6f756768206672616374696f6e7320617661696c61626c652e00600082015250565b6000610812601f836105a6565b915061081d826107dc565b602082019050919050565b6000602082019050818103600083015261084181610805565b9050919050565b7f4e6f7420656e6f756768206574686572732e0000000000000000000000000000600082015250565b600061087e6012836105a6565b915061088982610848565b602082019050919050565b600060208201905081810360008301526108ad81610871565b9050919050565b600081905092915050565b50565b60006108cf6000836108b4565b91506108da826108bf565b600082019050919050565b60006108f0826108c2565b9150819050919050565b7f4574686572207472616e73666572206661696c65642e00000000000000000000600082015250565b60006109306016836105a6565b915061093b826108fa565b602082019050919050565b6000602082019050818103600083015261095f81610923565b9050919050565b7f4e487b7100000000000000000000000000000000000000000000000000000000600052601160045260246000fd5b60006109a082610567565b91506109ab83610567565b9250827fffffffffffffffffffffffffffffffffffffffffffffffffffffffffffffffff038211156109e0576109df610966565b5b828201905092915050565b6109f48161067b565b82525050565b6000604082019050610a0f60008301856109eb565b610a1c6020830184610571565b9392505050565b6000610a2e82610567565b9150610a3983610567565b9250817fffffffffffffffffffffffffffffffffffffffffffffffffffffffffffffffff0483118215151615610a7257610a71610966565b5b82820290509291505056fea26469706673582212205228408ce70833500830b05ba3fbe5207b509ac7c973adbe9704d69ad8cbf7d264736f6c63430008090033",
    "linkReferences": {},
    "deployedLinkReferences": {}
}